:1000000046C082C05FC05EC05DC05CC05BC05AC0FD
:1000100059C058C057C056C055C054C053C000CD79
:10002000D914F13C28E5A16C78B5509D89440902AA
:10003000120001010080050904000000FF0000001B
:1000400012011001FF000008030431C6050201027D
:100050000001040309041A036900320063002D0043
:10006000740069006E0079002D0075007300620055
:100070001A03540069006C006C0020004800610005
:1000800072006200610075006D000100FF8E112496
:100090001FBECFE5D1E0DEBFCDBF10E0A0E6B0E0EF
:1000A000E4E0F9E002C005900D92A636B107D9F759
:1000B00020E0A6E6B0E001C01D92A639B207E1F744
:1000C000EDD31EC49DCFDC019FEF8FEF660FB9F01B
:1000D0004EE1F0E0229560FF2D91E82FE227EF70CE
:1000E000929582958F70392F307F832B9F70E40F0C
:1000F000359193273170932783276A9559F7809517
:1001000090958D939D9308950F931F932F93DF9355
:10011000CF930FB70F93B299FECFB2990BC0B2999C
:1001200009C0B29907C0B29905C0B29903C000E4F2
:100130000ABFA8C0C0917E00DD27C158DF4F0BE089
:1001400015E024E0B29BE9CF3F934F936F9366B3E2
:1001500030E803C066B3432B4993442765702627D4
:10016000215026B32570A9F137953C3FA0F56227B1
:10017000615066B3657037953C3F98F5262721504E
:10018000379526B325703C3F90F56227615037952F
:100190003C3F66B36570A0F52627215037953C3F5C
:1001A000C8F526B325706227615037953C3FB0F5FE
:1001B0000A9566B37AF065702627215037953C3F43
:1001C00088F526B325706227615037953C3F10F2C1
:1001D0002DC031C048C0612726B325703F774160EC
:1001E000C6CF3F77426066B365702127C7CF3F77A0
:1001F0004460612726B32570622761503795C8CFC8
:100200003F7748602127316066B36570262721500B
:100210003795C6CF3F7740616127C1CF3F774062B6
:100220002127C4CF3F7740646127C9CF3F7740681B
:10023000212700C08FCF30E43ABF0B500195033027
:1002400090F0C01B2881233C91F12B3481F119815E
:100250001F7740919500141731F42936D9F02D32CB
:1002600049F0213E39F04427409366006F914F9149
:100270003F9108C0209366006F914F913F910AB75C
:1002800006FD49CF0F910FBFCF91DF912F911F91A5
:100290000F911895009170000023F1F040917D00BE
:1002A0004423D1F440937000C1E7D0E018C02091FE
:1002B00066002223C1F240917D00442369F400933B
:1002C0007D0020937C0000917E004BE0401B40931A
:1002D0007E00C0E6D0E002C0C1E6D0E001E028B375
:1002E0002A7F216017B3156028BB17BB15E030E8E3
:1002F00030FF212728BB379547954C3FC0F530FF8D
:100300002127379528BB47954C3FA8F530FF21277B
:100310003795000028BB47954C3F78F530FF2127E3
:100320003795000028BB47954C3F48F530FF212703
:10033000699128BB379547954C3F18F530FF212729
:10034000379528BB47954C3F00F530FF212737955F
:10035000479528BB4C3FD8F430FF21273795362FDF
:10036000479528BB4C3FA8F40A9512F614C02127E4
:10037000442728BBC2CF2127C5CF2127CBCF212798
:10038000D1CF2127442728BBD7CF2127DACF212758
:10039000DFCF2127E5CF2A7F28BB6F914F913F9177
:1003A00000E40ABFDF91CF9117B3022F216028BB71
:1003B0001A7FDFBFDF912F91000017BB08BB1F9191
:1003C0000F91189585B7836085BF8BB780648BBF0D
:1003D000789408951F93CF93DF9360917D006623F7
:1003E00009F475C080917E00CCE0D0E0C81BD10933
:1003F000C158DF4F81E080936B0080917C008D328B
:1004000009F057C01E818F8181111FEF888180768E
:1004100089F58981811104C01882198282E041C066
:10042000853021F48A8180936700BBC08630B9F49F
:1004300082E080936B008B81813021F1823031F139
:10044000833009F0AEC08A81882321F1813031F1F7
:10045000823009F0A6C08AE1C6E5D0E022C088302B
:1004600019F481E088831DC08A3009F09AC018828F
:1004700081E017C0CE010AD18F3F99F493E09093A9
:100480006B000FC082E1C0E4D0E00BC082E1CEE29D
:10049000D0E007C084E0C2E5D0E003C08AE1C0E755
:1004A000D0E0181708F0182FD0936900C0936800A7
:1004B00005C0635011F0CE01A4D110E010936A0082
:1004C00083EC809371001092700010927D008091F7
:1004D0007000811158C090916B00992309F44FC0AE
:1004E0002091710088E8822780937100C0916A0092
:1004F000C93018F4CC23B1F101C0C8E0933031F415
:100500006C2F82E790E03CD1C82F27C08091680013
:1005100020916900913091F442E750E0E82FF22FEA
:1005200031969F0121503109D9019C91DA019D93A7
:10053000AD019E2F981B9C1798F30BC0A2E7B0E06B
:10054000E82FF22F949131969D939E2F981B9C1724
:10055000C8F3F0936900E093680080916A008C1BF7
:1005600080936A006C2F82E790E0ADDD83E08C0F12
:1005700080937000C83038F410926B0004C08091F2
:100580006700809395008AE0B0990DC08150E1F733
:10059000F8941092700010927D0010926700789489
:1005A00002C080E080CFDF91CF911F910895E0914C
:1005B0006200F09163003197F1F7882329F0BD982C
:1005C000C59AB59BFECF02C0BD9AC59880916400C4
:1005D000909165000197F1F70895B998C19A08952F
:1005E0008111FBCFB99AC198089580E0F9DF81E0CD
:1005F000DEDFF3CF0F931F93CF93DF93C7E0D0E0FD
:10060000082F10E0C8010C2E02C0959587950A941A
:10061000E2F780FF02C0E1DF02C080E0E1DF81E0BD
:10062000C6DF80E0C4DF219768F7D7DF81E0BFDF56
:10063000C6B380E0BCDFC695C17081E08C27DF9136
:10064000CF911F910F9108951F93CF93DF93182F90
:10065000C4DF80E0ACDFD8E0C0E081E0A8DFCC0FF1
:10066000B199C16080E0A3DFD150B9F7112311F037
:10067000B4DF02C080E0B4DF81E099DF80E097DF83
:10068000ACDF8C2FDF91CF911F9108951F93CF93F3
:10069000DF93EC0199819230D1F068F4992389F0CD
:1006A000913009F068C044E050E06AE870E0CE01A3
:1006B00017D184E061C0933009F458C0983000F13C
:1006C0005AC08A8188838B81898382E055C08A8160
:1006D0009B81009711F481E090E0909365008093F6
:1006E00064008091640090916500969587950097CD
:1006F00011F481E090E090936300809362003BC02E
:100700001C81110F8A8180FD116090FD03C065DF9F
:1007100081E04DDF80E064DF80E049DF812F6ADF28
:10072000811108C082E080936C0010926F001092DB
:100730006E0010C081E080936C008E819F81909349
:100740006F0080936E00298120936D0021FF03C00C
:10075000892B09F44ADF8A8180FF0DC081E02E8158
:100760003F81232B09F480E0819506C080916C00C5
:10077000888381E001C080E0DF91CF911F910895CF
:100780000F931F93CF93DF93082F162F80916C0048
:10079000462F50E0813059F520916E0030916F0066
:1007A0002417350708F4122F802FEC018C2F801BA3
:1007B000811788F420916E0030916F00215031092B
:1007C00030936F0020936E0081E0232B09F080E0CE
:1007D0003BDF8993EBCF80916D0081FF0CC080914E
:1007E0006E0090916F00892B31F4FFDE04C060E051
:1007F00070E0802F7ED0812FDF91CF911F910F91DC
:100800000895EF92FF921F93CF93DF931F92CDB77E
:10081000DEB720916C00462F50E0213079F5209111
:100820006E0030916F002417350708F4622F182FDF
:100830007C018E2D811B861780F480916E00909133
:100840006F00019790936F0080936E00F701819184
:100850007F016983CFDE6981ECCF80916D0081FFDC
:1008600016C080916E0090916F00892B81F40F90DB
:10087000DF91CF911F91FF90EF90B7CE60E070E0D5
:100880000F90DF91CF911F91FF90EF9032C00F90AA
:10089000DF91CF911F91FF90EF9008959EE088E146
:1008A0000FB6F894A89581BD0FBE91BDB998C19AB5
:1008B000BD98C59A10926F0010926E0088B38A7F1F
:1008C00088BB87B3856087BB80E49CE90197F1F71B
:1008D00087B38A7F87BB76DD7894A8957BDDFDCFD3
:1008E000FB01DC0102C005900D9241505040D8F749
:1008F0000895DC0101C06D9341505040E0F7089528
:04090000F894FFCF99
:06090400D25A05000A00B2
:00000001FF
